S00E000054432D4952512E7372656366
S214400000F824402019114000C9114000C911400091
S214400010C9114000C9114000C9114000000000004D
S214400020000000000000000000000000C911400071
S214400030C911400000000000C9114000C91140002D
S214400040C9114000C9114000C9114000C911400003
S214400050C9114000C9114000C9114000C9114000F3
S214400060C911400000000000190740003107400059
S21440007049074000C9114000C9114000C91140005D
S2144000806107400079074000C9114000C91140008F
S214400090C9114000C9114000C9114000C9114000B3
S2144000A001154000C9114000C9114000C911400067
S2144000B0C9114000C9114000C9114000C911400093
S2144000C0C9114000C9114000C9114000C911400083
S2144000D000000000C911400000000000C9114000A7
S2144000E0C9114000C9114000C9114000C911400063
S2144000F0C9114000C9114000C9114000C911400053
S214400100C9114000C9114000C9114000C911400042
S214400110C911400000000000000000000000000080
S214400120C9114000C9114000C9114000C911400022
S214400130C911400000000000C9114000C91140002C
S21440014010B5054C237833B9044B13B10448AFF3CC
S21440015000800123237010BD3C04402000000000B6
S214400160341840000C4B43B10C480D4910B5AFF362
S21440017000800C48036823B910BD0A48036833B9A9
S2144001807047094B002BF7D0BDE810401847064B88
S214400190002BF5D0184700BF000000003418400080
S2144001A040044020341840000000000080B582B073
S2144001B000AF78607B68072B31D801A252F823F055
S2144001C01D024000E1014000E9014000F10140000D
S2144001D0F9014000010240000902400013024000BD
S2144001E00020114B98471AE001200F4B984716E025
S2144001F000200E4B984712E010200C4B98470EE01C
S21440020020200A4B98470AE03E210020084B98479A
S21440021005E03E210120064B984700E000BF00BFA6
S2144002200837BD4680BD00BF91084000FD0840002D
S2144002306D09400080B582B000AF78607B68072BC0
S21440024026D801A252F823F0690240006D02400011
S2144002506D0240007F0240007F0240007F02400067
S2144002607F0240007F024000012312E00B4B98477C
S2144002700346002B14BF01230023DBB209E0084BE2
S21440028098470346002B14BF01230023DBB200E04F
S214400290002318460837BD4680BD00BFC908400049
S2144002A0E509400080B483B000AF78607B68072BD8
S2144002B025D801A252F823F0D9024000DF024000C0
S2144002C0E5024000EB024000EF024000F30240002F
S2144002D0F7024000FB0240004FF4FA4310E04FF4B0
S2144002E000430DE04FF400430AE0084B08E0084B9B
S2144002F006E0084B04E0074B02E0064B00E0002314
S21440030018460C37BD465DF8047B704700093D0033
S21440031000127A00001BB70080B582B000AF0346DB
S214400320FB7100BFFB791846054B9847034683F0A0
S2144003300103DBB2002BF5D100BF0837BD4680BDB8
S2144003403502400080B586B000AFF8607A603B600A
S2144003500B46FB727B68002B07D13B68002B04D111
S214400360FB684FF470021A6019E0FB7A18460E4B91
S214400370984702467B68B2FBF3F37B617B693A6839
S21440038002FB03F37B613B68013B1A04074B1340B7
S2144003907A68D2B2134343F47C52FB681A6000BFBB
S2144003A01837BD4680BD00BFA50240000000FF07CD
S2144003B080B582B000AF786039603B68002B08D1CA
S2144003C0094B9847094A7B681B6843F00053936281
S2144003D005E0064A7B681B6843F48033D36100BF60
S2144003E00837BD4680BD00BF010A400000060E40EB
S2144003F080B582B000AF78607B68002B03D1054B98
S2144004009847034602E0044B984703461846083789
S214400410BD4680BD1D0A4000390A400080B582B006
S21440042000AF0346FB71FB79033B042B08D8FB79EE
S2144004301846064B9847FB791846054B984700E008
S21440044000BF00BF0837BD4680BD00BFAD014000BD
S2144004501903400080B582B000AF786000BF78686E
S214400460044B98470346002BF9D00023184608371C
S214400470BD4680BDF103400080B500AF0620054B69
S2144004809847024613469B0013449A001344184666
S21440049080BD00BFA502400080B500AF024B984724
S2144004A00346184680BD00BF7904400090B583B02F
S2144004B000AF1348134B98470620134B9847381DF8
S2144004C0192301220621114CA0473B1D0021184646
S2144004D00F4B984700200F4B984702200E4B9847EB
S2144004E000200E4B98470E4B98470E4B98470346B6
S2144004F01846044B984700BF0C37BD4690BD00BF1A
S21440050000A3E111391340001D044000450340009C
S214400510B103400055044000910740000D084000DC
S214400520D11140009904400080B485B000AFF86017
S214400530B9607A607B68002B03D0FB68BA685A665D
S21440054002E0FB68BA681A6600BF1437BD465DF81D
S214400550047B704780B483B000AF786039607B68B6
S2144005603A681A6300BF0C37BD465DF8047B704797
S21440057080B483B000AF786039607B683A685A636D
S21440058000BF0C37BD465DF8047B704780B584B02D
S21440059000AFF860B9607A603B60B968F868124BA3
S2144005A09847BA69B968F868104B98473B68002B7B
S2144005B003D0FB68BA681A6502E0FB68BA685A65F9
S2144005C07B68002B03D0FB68BA681A6302E0FB68BE
S2144005D0BA685A63FB68BA681A61FB68BA681A60F8
S2144005E000BF1037BD4680BD1906400029054000B3
S2144005F080B483B000AF786039607B689A6B3B68A4
S2144006001340002B01D1002300E0012318460C378D
S214400610BD465DF8047B704780B483B000AF786019
S21440062039607B683A685A6400BF0C37BD465DF84F
S214400630047B704780B483B000AF78607B68DB6C27
S21440064018460C37BD465DF8047B704780B483B0CF
S21440065000AF78607B689B6C18460C37BD465DF8EB
S214400660047B704780B584B000AF786039607868A6
S214400670264B9847F8607868254B98470246FB68B3
S2144006801340FB60FB68002B3CD00023BB6034E08B
S214400690204ABB681B0113441A683B689A4226D11D
S2144006A01C4ABB681B01134404331A68FB6813409A
S2144006B0002B1CD0174ABB681B0113440C331B6825
S2144006C01449BA6812010A4410681249BA681201FD
S2144006D00A4404321268114698470E4ABB681B010A
S2144006E0134404331B68DB43FA681340FB60BB6863
S2144006F00133BB60BB68062B03D8FB68002BC7D111
S21440070000E000BF00BF1037BD4680BD3506400044
S2144007104D0640005804402080B500AF0A210248EC
S214400720024B984700BF80BD000E0E406506400055
S21440073080B500AF0B210248024B984700BF80BDF2
S21440074000100E406506400080B500AF0C21024800
S214400750024B984700BF80BD00120E406506400021
S21440076080B500AF10210248024B984700BF80BDBD
S21440077000140E406506400080B500AF11210248C7
S214400780024B984700BF80BD00160E4065064000ED
S21440079080B483B000AF78607B68013B032B1AD8E7
S2144007A001A252F823F000BFB9074000BF0740003F
S2144007B0C7074000CF07400000237B600EE04FF4A1
S2144007C080737B600AE04FF440737B6006E04FF432
S2144007D000737B6002E000237B6000BF0A490A4B3F
S2144007E01B6B23F440727B6813430B6300BF064BBE
S2144007F09B6E03F00803002BF9D000BF0C37BD46B4
S2144008005DF8047B704700BF00060E4080B485B09C
S21440081000AF78601D491D4B1B6B23F070027B6850
S21440082013430B634FF48053FB6007E0FB68002BD9
S21440083001D1012323E0FB68013BFB60134B9B6E19
S21440084003F00803002BF1D0104A104B1B6B23F02B
S214400850030343F0020313634FF48053FB6007E047
S214400860FB68002B01D1012309E0FB68013BFB60DC
S214400870064B9B6E03F00803002BF1D0002318466E
S2144008801437BD465DF8047B704700BF00060E4037
S21440089080B483B000AF78607B68012B05D10749F0
S2144008A0064B9A68064B13438B60044B054A1A6006
S2144008B000BF0C37BD465DF8047B704710180E40ED
S2144008C0000010A5080000A580B400AF094B5B6986
S2144008D003F08003002B07D0074B9B6E03F080038A
S2144008E0002B01D0012300E000231846BD465DF8EA
S2144008F0047B704710180E4000060E4080B483B04C
S21440090000AF78601549154B1A6A154B13430B62B6
S21440091000BF124B9B6E03F40033002BF9D00F49F7
S2144009200E4B1A6A0F4B13407A68134343F45C131A
S2144009300B6200BF094B9B6E03F40033002BF9D0CB
S2144009400649064B1A6A084B134043F45C130B6285
S21440095000BF0C37BD465DF8047B704700060E406E
S214400960080037008FFFC8FFFFFFC8FE80B483B083
S21440097000AF786039607B68002B08D01349134B72
S2144009801B6A134A1A40134B13430B6218E00F4975
S2144009900E4B1A6A104B13403A68120292B21A4330
S2144009A00E4B13430B6200BF084B9B6E03F00103D4
S2144009B0002BF9D00549054B1A6A094B13430B62C5
S2144009C000BF0C37BD465DF8047B704700060E40FE
S2144009D0FCFFC8FE02003701FCFFC8FF01003700DD
S2144009E00000370180B400AF044B9B6E03F48033A5
S2144009F01846BD465DF8047B704700BF00060E40B3
S214400A0080B400AF044B4FF000529A6200BFBD4620
S214400A105DF8047B704700BF00060E4080B400AF10
S214400A20044B9B6E03F002031846BD465DF8047BFC
S214400A30704700BF00060E4080B400AF044B9B6E6C
S214400A4003F040031846BD465DF8047B704700BF80
S214400A5000060E4080B483B000AF78607B683F2BC2
S214400A6001D901232FE07B681F2B13D8194B9A69B5
S214400A7001217B6801FA03F31A4001217B6801FAE1
S214400A8003F39A421ED0134A01217B6801FA03F30E
S214400A90136117E07B68203B7B600E4BD3F8082140
S214400AA001217B6801FA03F31A4001217B6801FAB1
S214400AB003F39A4206D0074A01217B6801FA03F302
S214400AC0C2F80031002318460C37BD465DF8047B5B
S214400AD0704700BF00060E4080B483B000AF786019
S214400AE0044A7B68136000BF0C37BD465DF8047B44
S214400AF0704700BF0400402080B483B000AF204B56
S214400B001B6F7B607B6823F4C0037B607B6843F489
S214400B1080037B601A4A7B6813671949184B1A6A28
S214400B20184B13430B6200BF154B9B6E03F0080334
S214400B30002BF9D000237B6003E000BF7B680133C5
S214400B407B607B68B3F5FA7FF7D300BF0C4B1B6A1C
S214400B5003F00803002BF9D0094B1B6F7B607B68C2
S214400B6023F4C0037B607B6843F480037B60044AC5
S214400B707B68136700BF0C37BD465DF8047B704743
S214400B8000060E400400370090B599B000AF78607C
S214400B907B68013B042B00F2A38101A252F823F0AC
S214400BA0B50B4000B50B4000D10B4000D10B4000C8
S214400BB0BF0E4000714A714B1B6923F0040313615A
S214400BC06F4B01221A70BFF35F8F62B630BF87E16A
S214400BD07B68032B03D100206A4B984703E04FF411
S214400BE00010684B984772B6BFF35F8F644B002285
S214400BF01A70654B01221A707B68042B0CBF0123C8
S214400C000023DAB207F11C033B6407F11803FB63C9
S214400C1007F11403BB6307F110037B6307F10C0372
S214400C203B63134687F82F30584B1B6ABB62574BC3
S214400C301B6B7B62564B1B683B623B6C002B02D0A7
S214400C403B6CBA6A1A60FB6B002B03D04F4B9A6A18
S214400C50FB6B1A60BB6B002B02D0BB6B00221A608A
S214400C607B6B002B02D07B6B7A6A1A603B6B002B47
S214400C7002D03B6B3A6A1A604449BA6A454B134302
S214400C800B627B6A03F00303012B0ED97B6A23F0C9
S214400C90030343F001037B623C4A7B6A13633B4B8E
S214400CA09B6E03F00803002BF9D07B6A03F07003B9
S214400CB0002B0CD07B6A23F070037B62334A7B6A3E
S214400CC01363324B9B6E03F00803002BF9D0324B74
S214400CD098472E4B9B6E03F40033002BF9D02B49DC
S214400CE02A4B1A6A2D4B134043F45C130B62274B76
S214400CF09B6E03F48033002BF9D0254A3B6A23F4DD
S214400D007063136097F82F30002B07D01F491F4B96
S214400D101A6A234B134043F45C130B62184B0122B0
S214400D201A70BFF35F8F62B61E4B984772B6BFF31A
S214400D305F8F134B00221A70FC69B86979693A696B
S214400D40FB68FC65B86579653A65FB640023BB645F
S214400D50FB6D03F00203002B2CD00C490B4B1B6A97
S214400D60114A1A40114B13430B620849074B1A6A43
S214400D700F4B134043F45C130B624EE000ED00E073
S214400D8000004020D90A4000C804402000060E401B
S214400D90000C0E4008003700010A4000FFFFC8FE66
S214400DA0FEFFC8FFF90A4000FCFFC8FE02003701FC
S214400DB087FFC8FFFB6D03F00103002B2DD04A4B85
S214400DC01B6A03F00103002B0DD14749464B1B6AB3
S214400DD0464A1A40464B13430B62434B9B6E03F006
S214400DE00103002BF9D0404B1B6A03F08073002BA5
S214400DF00BD13D493C4B1A6A3E4B13430B623A4B70
S214400E009B6E03F48033002BF9D03749364B1A6A71
S214400E10394B134043F45C130B62BA6D374B1340A7
S214400E20002B08D0304ABB6D43F000539362BB6C36
S214400E3043F00203BB643B6D03F00303022B05D172
S214400E40294B9B6E03F00203002BF9D0264B1B6BFD
S214400E507B6425497B6C23F070023B6D03F0700386
S214400E6013430B63204B9B6E03F00803002BF9D013
S214400E70234AFB6C13601C4A3B6D13631A4B9B6EF4
S214400E8003F00803002BF9D0174B9A6EBB6C134047
S214400E90002BF9D01B4B00221A701B4B1B68002BF3
S214400EA005D0194B1B689847174B00221A60174B02
S214400EB001221A70BFF35F8F62B600BF10E0144A7B
S214400EC0134B1B6943F004031361124B124A1A601A
S214400ED00E4B01221A70BFF35F8F62B630BF00BF61
S214400EE000BF6437BD4690BD00060E40FCFFC8FFFD
S214400EF0010037000000370187FFC8FF0000FF07EA
S214400F00000C0E40C8044020CC0440200000402086
S214400F1000ED00E010180E40040000A580B487B035
S214400F2000AFF860B9607A60FA68BB689B0113440A
S214400F307B617B6902221A607B694FF0FF329A62BE
S214400F407B691B6A7B697A685A6000BF1C37BD465E
S214400F505DF8047B704780B483B000AF786039603A
S214400F607A683B689B01134405221A6000BF0C3721
S214400F70BD465DF8047B704780B485B000AFF8602E
S214400F80B9607A60FA68BB689B0113441C337A6880
S214400F901A6000BF1437BD465DF8047B704780B4C6
S214400FA087B000AFF860B9607A60FA68BB689B01AA
S214400FB013447B617B697A685A6200BF1C37BD4622
S214400FC05DF8047B704780B485B000AF78603960C8
S214400FD07A683B689B011344FB60FB681B6A1846B3
S214400FE01437BD465DF8047B704780B48DB000AFC3
S214400FF0F860B9607A603B6002233B6108237B61FE
S2144010002023BB618023FB61BB6BDB0B3B62002371
S214401010FB621AE0FB6A9B0007F13002134453F868
S214401020203CBA68B2FBF3F3BB62BB6A1B0C7B6224
S214401030FA68BB6A9A4201D9002323E0FA687B6AC1
S2144010409A4206D2FB6A0133FB62FB6A042BE1D963
S21440105000E000BFFB6A042B01D9002312E07B6846
S214401060002B08D0FB6A9B0007F13002134453F86C
S214401070202C7B681A603B68002B02D03B68FA6ADB
S2144010801A60012318463437BD465DF8047B704726
S21440109080B483B000AFEFF310837B607B68002B97
S2144010A00CBF01230023DBB23B6072B6BFF35F8FF9
S2144010B0044B00221A703B6818460C37BD465DF854
S2144010C0047B70470000402080B483B000AF786057
S2144010D07B68002B14BF01230023DBB218460C3775
S2144010E0BD465DF8047B704780B582B000AF78603F
S2144010F07868074B98470346002B05D0054B0122DE
S2144011001A70BFF35F8F62B600BF0837BD4680BD1A
S214401110C91040000000402080B584B000AF1E4B90
S214401120FB601E4BBB60FA68BB689A420CD007E077
S214401130BB681A1DBA60FA68111DF96012681A6019
S214401140BB68174A9342F3D3164BBB6004E0BB68B8
S2144011501A1DBA6000221A60BB68134A9342F6D33F
S214401160124BFB60124AFB6823F07F039360114BDF
S21440117098477860104A104B1B6843F4700313601E
S214401180BFF34F8FBFF36F8F78680C4B98470C4B6D
S21440119098470C4B9847FEE7341840000000402024
S2144011A03C0440203C044020F40440200000400022
S2144011B000ED00E09110400088ED00E0E9104000AE
S2144011C09D1640004D16400080B400AFFEE700007C
S2144011D080B400AF524B1B6B03F00303012B14D0BB
S2144011E0012B02D3022B38D07AE04E4B5B6903F0DA
S2144011F08003002B04D04C4B4FF400421A606FE043
S214401200494B4FF4FA421A606AE0454B1B6A03F0BA
S2144012108073002B03D0444B444A1A6060E0424B34
S214401220434A1A603E4B1B6A03F07003102B04D0EF
S214401230202B08D0002B0ED00EE03B4B1B685B00EB
S214401240394A136008E0384B1A6813465B0013446B
S214401250354A136000E000BF42E0314B1B6A03F0A2
S2144012608073002B03D0304B304A1A601CE02E4B64
S2144012702F4A1A602A4B1B6A03F07003102B04D0C7
S214401280202B08D0002B0ED00EE0274B1B685B00AF
S214401290254A136008E0244B1A6813465B00134443
S2144012A0214A136000E000BF1D4B1B6B03F0030395
S2144012B0022B14D11A4B9B6A1B0CC3F30A0301334F
S2144012C0194A126802FB03F3174A1360144B9B6AD1
S2144012D0DBB2154A1268B2FBF3F3134A136000BF41
S2144012E00F4B1B6B03F07003702B08D10E4B1B6823
S2144012F0104AA2FB03235B080B4A13600AE0084B24
S2144013001B6B1B0903F00703074A126822FA03F314
S214401310054A136000BFBD465DF8047B704700BFBA
S21440132000060E4010180E4008004020001BB70074
S21440133000093D00ABAAAAAA80B483B000AF78608B
S2144013407B68194A934204D8184B4FF080621A6063
S21440135023E07B68164A934203D8144B154A1A601A
S2144013601BE07B68144A934203D8104B134A1A601A
S21440137013E07B68124A934203D80C4B114A1A601A
S2144013800BE07B68104A934204D8084B4FF0042287
S2144013901A6002E0054B0D4A1A6000BF0C37BD4686
S2144013A05DF8047B704700BFFF2C3101000C0E40F7
S2144013B0FF59620200010004FF8693030002000406
S2144013C0FFB3C40400030004FFE0F5050005000475
S2144013D080B483B000AF0346FB71094997F90730E4
S2144013E05B09FA7902F01F02012000FA02F241F886
S2144013F0232000BF0C37BD465DF8047B704700BF16
S21440140000E100E080B483B000AF03463960FB7172
S21440141097F90730002B0BDA0D49FB7903F00F03E1
S214401420043B3A68D2B25201D2B20B441A7609E073
S214401430084997F907303A68D2B25201D2B20B4403
S21440144083F8002300BF0C37BD465DF8047B704729
S21440145000ED00E000E100E080B483B000AF7860CB
S2144014607B68072B25D801A252F823F08D14400044
S21440147093144000991440009F144000A314400069
S214401480A7144000AB144000AF1440004FF4FA439A
S21440149010E04FF400430DE04FF400430AE0084BE1
S2144014A008E0084B06E0084B04E0074B02E0064B1A
S2144014B000E0002318460C37BD465DF8047B7047B5
S2144014C000093D0000127A00001BB70080B500AF4F
S2144014D00620054B9847024613469B0013449A0045
S2144014E01344184680BD00BF5914400080B500AF75
S2144014F0024B98470346184680BD00BFCD144000B7
S21440150080B582B000AF01210648074B9847034696
S2144015107B604FF480710548054B984700BF0837FD
S214401520BD4680BD00C00040C70F400000120E40C0
S2144015306915400090B585B002AF78600C20074B27
S21440154098477A680023009300234FF4807104483C
S214401550044CA04700BF0C37BD4690BD550A40001E
S21440156000120E408D05400080B582B000AF786016
S214401570396039687868094B98470346002B04D091
S21440158039687868064B984703E039687868054BB1
S214401590984700BF0837BD4680BD00BFF1054000F4
S2144015A0710540005505400090B58BB002AFF8601D
S2144015B0B9607A603B601D4B9847F861BB68184637
S2144015C01B4B9847386807F1140107F11802FB696E
S2144015D000930B46F969174CA04779687B6943F43A
S2144015E080431A46F868144B98477968BB69FA698D
S2144015F0B2FBF3F23B68B2FBF3F31A46F8680F4BC4
S2144016009847BB685BB2042118460D4B9847BB68A9
S2144016105BB218460B4B98477B6810221946F86811
S214401620094B984700BF2437BD4690BDED14400097
S214401630550A4000EB0F40001D0F4000790F400058
S21440164005144000D11340009F0F400098B500AFEE
S2144016500B4B98470B4B4FF400425A6001200A4B05
S21440166098470223012218210848094CA047012127
S2144016700648084B98470220074B9847FBE700BFB1
S214401680AD04400050180E403515400000C00040E4
S214401690A9154000570F4000890B400070B50F4E0B
S2144016A00F4D761BB61018BF002405D0013455F8F0
S2144016B0043B9847A642F9D10A4E0B4D761B00F0E4
S2144016C0A7F8B61018BF002406D0013455F8043BDE
S2144016D09847A642F9D170BD70BD00BF1C184000A7
S2144016E01C184000241840001C184000024B13B140
S2144016F0024800F005B87047000000000D17400093
S214401700002301461A46184600F01EB838B50A4C63
S2144017100A4D641BA4100AD004F18043013B05EB3C
S2144017208305013C55F804399847002CF9D1BDE8AB
S214401730384000F077B800BF3418400030184000FA
S214401740704700BF704700BF2DE9F8432C4D064652
S214401750286898460F469146FFF7F2FF294B1C68CB
S214401760D4F84831002B3ED05A681F2A1CDC02F1C0
S214401770010E76B103EB82010124C1F88890D3F8BC
S214401780880194402043022EC3F88801C1F808819E
S21440179023D00232C3F804E0286843F82270FFF7EB
S2144017A0D1FF0020BDE8F883174B0BB34FF4C87049
S2144017B0AFF300800346D8B1D4F848210260002138
S2144017C041600A46C4F848014FF0010EC0F888113F
S2144017D0C0F88C11002EDCD0CCE7D3F88C110C432B
S2144017E0C3F88C41D5E704F5A673C4F84831BBE787
S2144017F02868FFF7A7FF4FF0FF30BDE8F88300BF2B
S214401800380440200C184000000000001000402023
S214401810F8B500BFF8BC08BC9E467047ED164000C1
S21440182065014000F8B500BFF8BC08BC9E4670474E
S20840183041014000ED
S214401834010000000000200000093D0000000000F8
S21440184400000000FC02402064034020CC034020FB
S214401854000000000000000000000000000000003F
S214401864000000000000000000000000000000002F
S214401874000000000000000000000000000000001F
S214401884000000000000000000000000000000000F
S21440189400000000000000000000000000000000FF
S2144018A400000000000000000000000000000000EF
S2144018B400000000000000000000000000000000DF
S2144018C400000000000000000000000000000000CF
S2144018D400000000000000000000000000000000BF
S2144018E400000000000000000100000000000000AE
S2144018F40E33CDAB34126DE6ECDE05000B00000073
S214401904000000000000000000000000000000008E
S214401914000000000000000000000000000000007E
S214401924000000000000000000000000000000006E
S214401934000000000000000000000000000000005E
S210401C640000000000000000D0044020FB
S80440111991
